:020000041000EA
:10100000C81C0020A1130010A9130010AB1300107E
:10101000AD130010AF130010B11300105A5A5A5AF2
:10102000000000000000000000000000B3130010EA
:10103000B513001000000000B7130010B913001022
:10104000BB130010BB130010BB1300100000000006
:10105000BB130010BB130010BB130010BB13001018
:10106000BB130010BB130010BB130010BB13001008
:10107000BB130010BB130010BB130010BB130010F8
:10108000BB130010BB130010BB130010BB130010E8
:10109000BB130010BB130010BB130010BB130010D8
:1010A000BB130010BB130010BB130010BB130010C8
:1010B000BB130010BB130010BB130010BB130010B8
:1010C000BB130010BB130010BB130010BB130010A8
:1010D000BB130010BB130010BB130010BB13001098
:1010E000BB130010BB130010BB130010BB13001088
:1010F00000000000BB130010BB130010BB13001056
:1011000000000000BB130010BB130010BB13001045
:10111000BB130010000000000000000000000000F1
:1011200000000000000000000000000000000000BF
:1011300000000000000000000000000000000000AF
:10114000000000000000000000000000000000009F
:10115000000000000000000000000000000000008F
:10116000000000000000000000000000000000007F
:10117000000000000000000000000000000000006F
:10118000000000000000000000000000000000005F
:10119000000000000000000000000000000000004F
:1011A000000000000000000000000000000000003F
:1011B000000000000000000000000000000000002F
:1011C000000000000000000000000000000000001F
:1011D000000000000000000000000000000000000F
:1011E00000000000000000000000000000000000FF
:1011F00000000000000000000000000000000000EF
:1012000000000000000000000000000000000000DE
:1012100000000000000000000000000000000000CE
:1012200000000000000000000000000000000000BE
:1012300000000000000000000000000000000000AE
:10124000000000000000000000000000000000009E
:10125000000000000000000000000000000000008E
:10126000000000000000000000000000000000007E
:10127000000000000000000000000000000000006E
:10128000000000000000000000000000000000005E
:10129000000000000000000000000000000000004E
:1012A000000000000000000000000000000000003E
:1012B000000000000000000000000000000000002E
:1012C000000000000000000000000000000000001E
:1012D000000000000000000000000000000000000E
:1012E00000000000000000000000000000000000FE
:1012F000000000000000000000000000FFFFFFFFF2
:1013000000F002F800F03CF80AA090E8000C8244DB
:101310008344AAF10107DA4501D100F031F8AFF2B8
:10132000090EBAE80F0013F0010F18BFFB1A43F0C3
:10133000010318475C0900007C090000103A24BF33
:1013400078C878C1FAD8520724BF30C830C144BF2A
:1013500004680C607047000000230024002500266C
:10136000103A28BF78C1FBD8520728BF30C148BF08
:101370000B6070471FB500F085FC1FBD10B510BD98
:1013800000F08AF81146FFF7F5FF00F09BFB00F034
:10139000A8F803B4FFF7F2FF03BC00F0AFF80000B9
:1013A0000948804709480047FEE7FEE7FEE7FEE7F9
:1013B000FEE7FEE7FEE7FEE7FEE7FEE70448054935
:1013C000054A064B70470000691600100113001013
:1013D000C8100020C81C0020C8140020C814002019
:1013E00010B5203AC0F00B80B1E81850203AA0E8C0
:1013F0001850B1E81850A0E81850BFF4F5AF5FEAF4
:10140000027C24BFB1E81850A0E8185044BF18C9A6
:1014100018C0BDE810405FEA827C24BF51F8043B4D
:1014200040F8043B08BF7047D20728BF31F8023BA1
:1014300048BF11F8012B28BF20F8023B48BF00F835
:10144000012B70474FF0000200B5134694469646B4
:10145000203922BFA0E80C50A0E80C50B1F12001C7
:10146000BFF4F7AF090728BFA0E80C5048BF0CC075
:101470005DF804EB890028BF40F8042B08BF7047D3
:1014800048BF20F8022B11F0804F18BF00F8012B45
:101490007047704770477047754600F02BF8AE46AE
:1014A00005006946534620F00700854618B020B570
:1014B000FFF784FFBDE820404FF000064FF0000723
:1014C0004FF000084FF0000B21F00701AC46ACE8EC
:1014D000C009ACE8C009ACE8C009ACE8C0098D4659
:1014E000704710B50446AFF300802046BDE81040B9
:1014F000FFF74FBF004870476410002001491820D3
:10150000ABBEFEE7260002007047000002461C4901
:101510004FF0FF30112A0BD2DFE802F00B09090966
:10152000090A13181A1C0A0A232527292B0010461A
:1015300070471449496801F00A010229F8D10020D6
:1015400070478969C907FBD106207047096A11E015
:10155000096B0FE00A6CD20701D0496C0AE0002148
:1015600008E0896C06E0C96C04E0096D02E0496D91
:1015700000E0896DCA07E8D1C1F30460704700003C
:1015800000000540003004402DE9F0470127DFF856
:10159000B090DFF8B0A02C4E3C460025112849D26F
:1015A000DFE800F0090E0C0C0E480E4242234848BA
:1015B0001014191B1F004FF4004536E0554634E067
:1015C0004D4632E0B16CC1F3810101E0F16C05E000
:1015D000491C4C4328E0316D00E0716DC1F383017B
:1015E000F6E7B16DC1F38701F2E7716C0123C1F336
:1015F0000128C1F3013203FA08F3C1F3074C521C6E
:101600000CF1010C5FEA817802D5090603D404E0ED
:1016100011F0C00F01D159004A434CEA0221CAB26D
:101620005743C1F307214C4335B17D43B5FBF4F07B
:10163000BDE8F0870020FBE7FFF768FFAEE700009A
:10164000001BB70080F0FA0200000540044800B516
:10165000C06EC0F30460FFF797FF0249086000BD49
:1016600000000540601000200B48016841F4700143
:1016700001600A484FF08071C0F804114FF0E0207B
:10168000016921F0030101610349054880396FF3C5
:10169000130008607047000088ED00E0003005404E
:1016A000001000102DE9F0418046088898B00F46E0
:1016B00000F00F0500F4704600F4706420221D490C
:1016C0006846FFF78DFE20221B4908A8FFF788FE19
:1016D00020221A4910A8FFF783FE164800688047A9
:1016E00090B915480068804770B90220B0EB142FFC
:1016F0000AD34AF20800854206D86846B6F5204F5C
:1017000006D0B6F5304F0BD0202018B0BDE8F081E0
:10171000210A00EB411050F8251038468847F4E7BD
:10172000210A00EB4110394650F8252040469047E9
:10173000EBE70000201000200010002040100020E7
:101740002DE9F041ADF5806D0D460646904600242A
:10175000154F4FF480616846FFF774FE6A4600201B
:1017600042F8244052F82430D90700D0394681EAA3
:101770005301401C42F824100828F3DB641CFF2CA2
:10178000EDDD6FEA0801002007E0335C4B40DBB27F
:10179000401C52F8233083EA1121A842F5D30DF5FD
:1017A000806DC843BDE8F0812083B8ED2DE9F0419C
:1017B0000C460546D4E9016700223946FFF7C0FF11
:1017C000E959814207D02021C4E90610E859206276
:1017D0000846BDE8F081094AF1B2002002EBC112CF
:1017E000014655F8213052F82140A34201D0212072
:1017F000EFE7491C2029F4DBEBE7000000000420A0
:101800000A48002181610221C1600949094A096829
:10181000B1FBF2F1491E4161074A04211160C06821
:10182000800701D4481F70470020704700E0004047
:101830006010002060E31600DCEF00402DE9F0416D
:101840000C460546D4E9016700223946FFF778FFC8
:10185000E9592023814206D0C4E90630E8592062C4
:101860002020BDE8F0810F49F0B201EBC0100E4915
:1018700000240A68214655F8216040F82160491C7F
:101880002029F8DB0948521E05D30168490702D414
:10189000012AF8D104E005490420083108602346F4
:1018A0001846DEE70000042060100020E0EF004052
:1018B00010B50979064A002302EBC112194652F805
:1018C000214040F82140491C2029F8DB184610BD72
:1018D0000000042000B5001D8BB007C835230DF1B2
:1018E000040C00938CE807004FF0825006A9D0F852
:1018F00000216846904706980BB000BDF0B50C4635
:101900008BB0D4E90175064600222946FFF718FF7F
:101910007159814207D02021C4E906107059206214
:1019200008460BB0F0BD3820CDE90007CDE90265CF
:101930004FF0825006A9D0F80021684690470698DB
:10194000EFE700002DE9F04111494FF47A72D0E938
:1019500001540968C768B1FBF2F68CB03A462146DB
:10196000284600F09DF880463420CDE9000502A904
:101970004FF0825081E8D000D0F80021684606A9D7
:10198000904706980CB040EA0800BDE8F0810000DE
:101990006010002030B58BB0044600253620009042
:1019A0004FF0825006A9D0F800216846904706986B
:1019B00008B1014600E007996068884202D0202003
:1019C0000BB030BD2846E161FAE700002DE9F04F89
:1019D0000C4606461A484FF47A71D4E904A9006807
:1019E0008BB0B0FBF1F8D4E90250834600222946BF
:1019F00030466768FFF7A4FE7159814208D0202164
:101A0000C4E906107059206208460BB0BDE8F08F9B
:101A10004A465146584600F043F83321CDE90017B5
:101A20000446CDE902654FF08250CDF81080D0F821
:101A30000021684606A9904706982043E5E7000084
:101A40006010002000B50B494FF47A728BB0096822
:101A50004068B1FBF2F13C220092CDE901014FF068
:101A6000825006A9D0F800216846904706980BB02E
:101A700000BD0000601000204FF08251D1F8041129
:101A80000858704700B58BB0312000904FF082505D
:101A900006A9D0F800216846904706980BB000BD13
:101AA00000B58BB032230DF1040C00938CE80700D5
:101AB0004FF0825006A9D0F800216846904706985A
:101AC0000BB000BD70B5054C054DFFF7BFFD2146BD
:101AD0002846FFF7E7FDA06170BD00000000081078
:101AE0000004081070B50025134C294604EB810250
:101AF00050F8213012699A4217D1491C0829F5DBA8
:101B00000D49026A2031C2F343620969C1F343619E
:101B10008A420AD124220021861802EB8100204447
:101B200056F821300069984201D0212070BD491C2F
:101B30000329F2DB284670BD0050044010B5002098
:101B4000FFF79AFFBDE81040004700002DE9F05F65
:101B50000446406AD1F804A0070CC7EB074904F11A
:101B6000100604F12005FFF7E9FF002855D184464F
:101B7000DFF8AC802146604608EB800251F8203047
:101B800012695A4041F82020401C0C28F4DB5FEA1F
:101B90000C0042D1206AC0F343680420FFF76CFFB9
:101BA000014640468847DFF87CB0584500D1002008
:101BB000002832D1BAF1000F0CD0B8464F460C20A5
:101BC000FFF75AFF0246394640469047584506D12E
:101BD000002004E0696820200A4600F025F800286B
:101BE0001BD122461146142000F035F8002814D1EC
:101BF00032461146182000F02EF800280DD1A968B1
:101C000024200A4600F010F8002806D1E968BDE853
:101C1000F05F0A46282000F007B8BDE8F09F0000FA
:101C2000005004400300070038B50D460021009124
:101C3000A0F120011446092901D3202038BDFFF767
:101C40001BFF0246214628469047A0F5E021C91E09
:101C5000F4D1002038BD38B50D4600210091A0F127
:101C600014011446092901D3202038BDFFF704FFD1
:101C70000246214628469047A0F5E021C91EF4D12E
:101C8000002038BD4FF04070E1EE100A70470000B0
:101C9000B01C001000100020640000003C13001075
:101CA000141D001064100020640C00005813001074
:101CB00001180010000000000000000000000000FB
:101CC0003D180010AD17001000000000B118001002
:101CD000851A001095190010D5180010451900102C
:101CE000CD190010FD180010451A0010000000006A
:101CF0003D1B00100000000000000000000000007C
:101D00004D1B0010E51A001000000000000000004C
:041D1000001BB700FD
:0400000510001301D3
:00000001FF
